:03000000020249B0
:0100030032CA
:03000B0002017F70
:0100130032BA
:01001B0032B2
:0100230032AA
:03002B0002019B34
:10002E00C00078B10000D8FCD00022C000C0017919
:10003E002D78A6D8FED9FADAF6D001D00022D2B3A6
:10004E0012002EC2B322A2E792B7A2E692B6A2E5A2
:10005E0092B5A2E492B412004C12002EA2E392B713
:10006E00A2E292B6A2E192B5A2E092B412004C22A4
:10007E00D2B2020054C2B2020054C2B374331200A0
:10008E008374331200837432120083742812008337
:10009E00740C1200837401120083C0027A021200E3
:1000AE0039D00222E493600612007EA380F6224429
:1000BE00404480020083C0E0E8C4540F4430120074
:1000CE007EE8540F443012007ED0E02254696D65F4
:1000DE00202030303A30303A3030204100416C61CF
:1000EE00726D2030303A30302020202041003A000E
:1000FE005E5E002020202020205E5E20202020201A
:10010E00202020002020202020202020205E5E2085
:10011E0020202020002020202020202020202020F1
:10012E00205E5E20200054696D65202020203A203C
:10013E00203A2020202000416C61726D2031303A2F
:10014E0034333A3030204100416C61726D202020F2
:10015E003A20203A20204100E58954F04401F589E7
:10016E00758CEA758AE875F4EA75F2E8D2A9D28C34
:10017E0022B2913275C80075CDA975CC9A75CBA9EE
:10018E0075CA9AE4F530F531D2ADD2CA22C2CFB2D9
:10019E0090C0E0C0D00530E53070020531E530B4D6
:1001AE00E86CE531B40367E537B40A0575370080AE
:1001BE00020537D200E4F530F531E532B4593A7420
:1001CE0000D4F532300403120221E533B4593174F0
:1001DE0000D4F533E53420010AB4112BB41200B269
:1001EE00018024B412077401D4F5348021B41117A0
:1001FE00B2017400D4F53480152401D4F532800E8A
:10020E002401D4F53380072401D4F5348000D0D0F6
:10021E00D0E032E534B53522E53304D4B5361B20B3
:10022E00010C200215D28C753700D205800C3002DD
:10023E0009D28C753700D20580002275817F12019C
:10024E006612018275E60075E700D2AF120088D201
:10025E0000C0E07401141200BFD0E0C083C082C0A1
:10026E00E09000DA1200B2D0E0D082D0837400D4D5
:10027E00F532F533F534C201F5357401D4C2027589
:10028E003800C3E53820A115C0027A32120039D0E9
:10029E000220A10930A1FD0202E002037C20A1FA96
:1002AE00C0027A32120039D00220A1EE30A1FDC078
:1002BE00E07401141200BFD0E0C083C082C0E09091
:1002CE0000DA1200B2D0E0D082D0837400F538028A
:1002DE00040AC0E07401141200BFD0E0C083C082D3
:1002EE00C0E09001341200B2D0E0D082D083C0E0E2
:1002FE007407141200BFD0E0C000A8341200C4D09E
:10030E0000C0E0740A141200BFD0E0C000A833127F
:10031E0000C4D000C0E0740D141200BFD0E0C000C5
:10032E00A8321200C4D000C0E07410141200BFD066
:10033E00E0C0E0744112007ED0E0C0E074011412FF
:10034E0000BDD0E0C083C082C0E09001451200B273
:10035E00D0E0D082D08320A112C0027A32120039AE
:10036E00D00220A10630A1FD0204BE0202E02086CA
:10037E001FC0027A32120039D0022086133086FD59
:10038E00E539B4020675390002040A053902040A79
:10039E00208363C0027A32120039D0022083573094
:1003AE0083FDC3E53960129401603AC2CAE4F530A8
:1003BE00F531753200D2CA8043E53420010AB411FA
:1003CE001DB41200B2018016B412077401D4F534B4
:1003DE00802AB41109B2017400D4F534801E2401B0
:1003EE00D4F5348017E533B45905753300800D24E8
:1003FE0001D4F5338006200003020290C200C0E053
:10040E007401141200BDD0E0C3E539601894016088
:10041E0028C083C082C0E09001231200B2D0E0D089
:10042E0082D0838028C083C082C0E0900101120078
:10043E00B2D0E0D082D0838014C083C082C0E0905E
:10044E0001121200B2D0E0D082D0838000C0E074DE
:10045E0007141200BFD0E0C000A8341200C4D000B0
:10046E00C0E0740A141200BFD0E0C000A83312001E
:10047E00C4D000C0E0740D141200BFD0E0C000A8BC
:10048E00321200C4D000C0E07410141200BFD0E0CD
:10049E0020010CC0E0744112007ED0E00204BEC008
:1004AE00E0745012007ED0E0C2060202900204F107
:1004BE0020A1FAC0027A32120039D00220A1EE3009
:1004CE00A1FDC0E07401141200BFD0E0C083C08251
:1004DE00C0E09000EB1200B2D0E0D082D083740066
:1004EE0002057F20861FC0027A32120039D0022008
:1004FE0086133086FDE539B4020675390002057F94
:10050E00053902040A208363C0027A32120039D000
:10051E00022083573083FDC3E53960129401603A9F
:10052E00C2CAE4F530F531753200D2CA8043E534E3
:10053E0020010AB4111DB41200B2018016B41207C4
:10054E007401D4F534802AB41109B2017400D4F5C3
:10055E0034801E2401D4F5348017E533B459057563
:10056E003300800D2401D4F53380062000030202EF
:10057E0090C200C0E07401141200BDD0E0C3E53992
:10058E006006940160168028C083C082C0E090018E
:10059E00011200B2D0E0D082D0838014C083C0821A
:1005AE00C0E09001121200B2D0E0D082D083800061
:1005BE00C0E07407141200BFD0E0C000A8351200CE
:1005CE00C4D000C0E0740A141200BFD0E0C000A86E
:1005DE00361200C4D000C0E0740D141200BFD0E07B
:1005EE00C0E07410141200BFD0E0C0E074411200DD
:1005FE007ED0E0020604C0E07401141200BFD0E009
:10060E00C083C082C0E09000DA1200B2D0E0D08287
:10061E00D083C0E07401141200BDD0E0C083C0824C
:10062E00C0E09000EB1200B2D0E0D082D083C0E0E8
:10063E007407141200BFD0E0C000A8341200C4D05A
:10064E0000C0E0740A141200BFD0E0C000A833123C
:10065E0000C4D000C0E0740D141200BFD0E0C00082
:10066E00A8321200C4D000C0E07407141200BDD02E
:10067E00E0C000A8351200C4D000C0E0740A141205
:10068E0000BDD0E0C000A8361200C4D00002069E05
:0E069E00C0E0745012007ED0E0C2060202904E
:00000001FF
